:020000040000FA
:08000000803102288731E82F4E
:10000C00420137084101B3003308B50035162C30D6
:10001C00B3003308AD003508B4003408AE006E08E8
:10002C008A006D080A008031003A031D1F28003039
:10003C00080041013508B30033084201B700013014
:10004C000800420137084101B3003308B500EF3016
:10005C00B3003308B5052C30B3003308AD003508B8
:10006C00B4003408AE006E088A006D080A008031B6
:10007C00003A031D43280030080041013508B30045
:10008C0033084201B700013008004001A300A10170
:10009C00A20121082307FA007A08860001308700A4
:1000AC000108FB007B08A0002008031908002008A9
:1000BC00FA00FB017A08F1007B08F2007908FC00D9
:1000CC007C08F3008031D820803101304001A10739
:1000DC000030A23D4F284101B201B3013308803AF0
:1000EC00B00080303002031D7D282D083202031829
:1000FC00A22800304101A3009030A4002F088600F4
:10010C0087010108B000B1013008A5003108A60034
:10011C002E083207A70033080318330AA8008E31C3
:10012C00F326803101304101B0003008AF070130B7
:10013C00B2070030B33D742801300800F90079088B
:10014C00031DB82841016F080319B028F701F80105
:10015C00EF01D3288E31912680317108F800700898
:10016C00F700D328790886008701790A8400850175
:10017C0000080107F4007408860087010108F500E7
:10018C00F6017508F7007608F800790A86008701F1
:10019C000130810741310318810A7808F300770890
:1001AC00F20008007308031D7308031DE128710891
:1001BC008E31D32608007308033E86008701160093
:1001CC000104031904297308033E86008701403F8C
:1001DC00F400413FF500730A86008701403FF600AA
:1001EC00413FF7007708803AF8007508803A7802AA
:1001FC00031D02297408760203180800730A86008E
:10020C0087010130810741310318810A080041013F
:10021C00A00040016C084101A20040016B084101A3
:10022C00A1004201CD01CE01410121088400220828
:10023C008500120003193929A1304001EE006E0827
:10024C00D2006D08EF006F08D30041012008843103
:10025C0005248131400152084201CD074001530869
:10026C004201CE3D1A2942014E084001EC004201E8
:10027C004D084001EB0008004001AB0041016B1C34
:10028C00502940012B08FD007D08F900240880311D
:10029C004B2081314001A61B58292608AA002508AD
:1002AC00A9005A29A901AA01A701A8012808803A86
:1002BC00FD002A08803A7D02031D662929082702C1
:1002CC0003187A292030F1000030F20040012B088D
:1002DC00FD007D08F3008031D820813101304001D0
:1002EC00A7070030A83D5C2941016B188629400105
:1002FC002B08FD007D08F900240880314B2081314A
:10030C00400124088F316527400129087007A4009B
:10031C002A08713DA50008008F319A278131613080
:10032C008E31AE2681314E30F0000F30F1000030AE
:10033C00F2000030F3008E31C82681317130F000AC
:10034C000030F1000030F2000030F3008E31BE2698
:10035C0081310030840088308500B4308600003054
:10036C0087002D304101E80012001E00E80BBA296D
:10037C008E31DF2681314101E900EA016908420131
:10038C00DD0041016A084201DE006C304101A3002E
:10039C009030A40042015E084101A60042015D08B4
:1003AC004101A5008E31F32681318F31DC2781315B
:1003BC004101E800E90168084201DF0041016908D8
:1003CC004201E00054304101A3009030A4004201EE
:1003DC0060084101A60042015F084101A5008E3171
:1003EC00F32681318031062081314101E800E90199
:1003FC0068084201E100410169084201E200213034
:10040C004101A3009030A400420162084101A60002
:10041C00420161084101A5008E31F3268131803102
:10042C00272081314101E800E90168084201E3001D
:10043C00410169084201E4003B304101A3009030C6
:10044C00A400420164084101A60042016308410175
:10045C00A5008E31F32681318E31B62680310228EB
:10046C00F2012830860000308700473FF000F01F73
:10047C00602A4001A809A909AA09AB09AC09AD0970
:10048C00AE09AF09A80A031D5E2AA90A031D5E2A3C
:10049C00AA0A031D5E2AAB0A031D5E2AAC0A031DC1
:1004AC005E2AAD0A031D5E2AAE0A031D5E2AAF0A40
:1004BC00F201F20A2030860000308700473FF0003E
:1004CC00F01F872A4001A009A109A209A309A409C8
:1004DC00A509A609A709A00A031D872AA10A031DBD
:1004EC00872AA20A031D872AA30A031D872AA40AA6
:1004FC00031D872AA50A031D872AA60A031D872A1E
:10050C00A70A400120082104220423042404250402
:10051C00260427040319DF2AF101F10AA71BA32AD9
:10052C00A035A10DA20DA30DA40DA50DA60DA70D13
:10053C000130F0007008F107942A27082F02031DE0
:10054C00C12A26082E02031DC12A25082D02031DCF
:10055C00C12A24082C02031DC12A23082B02031DC7
:10056C00C12A22082A02031DC12A21082902031DBF
:10057C00C12A20082802031CD32A2008A80221081B
:10058C00A93B2208AA3B2308AB3B2408AC3B25081B
:10059C00AD3B2608AE3B2708AF3BA736A60CA50CF7
:1005AC00A40CA30CA20CA10CA00C0130F102031D95
:1005BC00A32A72080319002BA809A909AA09AB09D7
:1005CC00AC09AD09AE09AF09A80A031D002BA90A95
:1005DC00031D002BAA0A031D002BAB0A031D002BC5
:1005EC00AC0A031D002BAD0A031D002BAE0A031D24
:1005FC00002BAF0A40012808A0002908A1002A08F6
:10060C00A2002B08A3002C08A4002D08A5002E087E
:10061C00A6002F08A7000800F20120308600003049
:10062C008700473FF000F01F3C2B4001A009A109B7
:10063C00A209A309A409A509A609A709A00A031DD3
:10064C003A2BA10A031D3A2BA20A031D3A2BA30A2B
:10065C00031D3A2BA40A031D3A2BA50A031D3A2BA2
:10066C00A60A031D3A2BA70AF201F20A28308600CB
:10067C0000308700473FF000F01F672B4001A809AE
:10068C00A909AA09AB09AC09AD09AE09AF09A80AB9
:10069C00031D632BA90A031D632BAA0A031D632BDD
:1006AC00AB0A031D632BAC0A031D632BAD0A031DA0
:1006BC00632BAE0A031D632BAF0A0130F0007008E8
:1006CC00F20673308600003087000830F0000030EE
:1006DC001E00F00B6E2B4001200821042204230481
:1006EC0024042504260427040319D22BF101F10A52
:1006FC00A71B8D2BA035A10DA20DA30DA40DA50D2F
:10070C00A60DA70D0130F0007008F1077E2BF33514
:10071C00F40DF50DF60DF70DF80DF90DFA0D270882
:10072C002F02031DB32B26082E02031DB32B250805
:10073C002D02031DB32B24082C02031DB32B2308FD
:10074C002B02031DB32B22082A02031DB32B2108F5
:10075C002902031DB32B20082802031CC62B2008DA
:10076C00A8022108A93B2208AA3B2308AB3B24087A
:10077C00AC3B2508AD3B2608AE3B2708AF3B7314BA
:10078C00A736A60CA50CA40CA30CA20CA10CA00CB7
:10079C000130F102031D8D2B72080319F32BF309A1
:1007AC00F409F509F609F709F809F909FA09F30A40
:1007BC00031DF32BF40A031DF32BF50A031DF32B76
:1007CC00F60A031DF32BF70A031DF32BF80A031D7E
:1007DC00F32BF90A031DF32BFA0A73084001A0004E
:1007EC007408A1007508A2007608A3007708A4007D
:1007FC007808A5007908A6007A08A700080040012F
:10080C00EA00520886008701403FD400413FD500E2
:10081C0054088400550885001200253A031D182D34
:10082C005208860087010130810741310318810A83
:10083C004201CF01D0014101EB01EC01FF3042013B
:10084C00D100FF30D2004001520886008701403FA2
:10085C00D400413FD500540884005508850012008F
:10086C00643A0319482C520886008701403FD40093
:10087C00413FD50054088400550885001200693AA0
:10088C00031D822C520886008701013081074131FB
:10089C000318810A5308860087010108840085012A
:1008AC0002308107003FD400013FD5005408D90025
:1008BC005508DA00890D893B8909DB00DC00DD0075
:1008CC00DE00DF00E0005908B0005A08B1005B08F8
:1008DC00B2005C08B3005D08B4005E08B5005F08A8
:1008EC00B6006008B7006A0885313B254001310825
:1008FC00D3003008D2000800520886008701403F20
:10090C00D400413FD50054088400550885001200DE
:10091C00783A0319A02C520886008701403FD40076
:10092C00413FD50054088400550885001200583A00
:10093C00031DE62C520886008701403FD400413F3E
:10094C00D50054088400550885000008D6005608C8
:10095C00E9005208860087010130810741310318F4
:10096C00810A530886008701010884008501023042
:10097C008107003FE100013FE200E301E401E501F2
:10098C00E601E701E8016108AC006208AD0063080C
:10099C00AE006408AF006508B0006608B1006708D7
:1009AC00B2006808B3006908D4005408B4006A089F
:1009BC0086318E2640012D08D3002C08D200080069
:1009CC00520886008701403FD400413FD5005408AF
:1009DC008400550885001200253A031D0D2D520880
:1009EC00860087010130810741310318810A2530C7
:1009FC00F1000030F2006A08D4005408F300803192
:100A0C00D82001304001D2000030D3000800520839
:100A1C00860087010130810741310318810AD20118
:100A2C00D3010800520886008701403FD400413FA3
:100A3C00D50054088400550885000008D600D7015D
:100A4C005608F1005708F2006A08D8005808F3005D
:100A5C008031D82084314001520886008701013052
:100A6C00810741310318810A072D4001BF0030086E
:100A7C00C4003108C5003208C6003308C70034086A
:100A8C00C8003508C9003608CA003708CB00443006
:100A9C00860000308700473FB800B81F572D013043
:100AAC00582D00304001B900BA013908C2003A088B
:100ABC00C300420843040319812DC409C509C609A2
:100ACC00C709C809C909CA09CB09C40A031D812D64
:100ADC00C50A031D812DC60A031D812DC70A031DDE
:100AEC00812DC80A031D812DC90A031D812DCA0A37
:100AFC00031D812DCB0A4201D21B892DFD304101F2
:100B0C00EB05FF30EC0542015208803A4001B80079
:100B1C0080303802031D952D01304201510203181B
:100B2C009D2D01304001BD000030BE00A52D4201BD
:100B3C0052084001BE00420151084001BD00420173
:100B4C0050084001C10042014F084001C00042085A
:100B5C004304031DB42D41016B1DB92DFF30400121
:100B6C00C007FF30C13D1F304001CC000030CD002C
:100B7C004301BF014F2E400144084504460447047D
:100B8C00480449044A044B04031DE62D3E08803AF0
:100B9C00B80080303802031DD52D01303D020318FA
:100BAC00E62D40014108803AB80080303802031D20
:100BBC00E12D01304002031C5B2E4101EB1C5B2E2E
:100BCC00FF304001CC07FF30CD3D0A30A000A10121
:100BDC00A201A301A401A501A601A7014408A80034
:100BEC004508A9004608AA004708AB004808AC0015
:100BFC004908AD004A08AE004B08AF0082313622DE
:100C0C00853140012108F4002008F3008F310927B9
:100C1C0085317308303E4001B8004C08A03E860078
:100C2C000130870038088100FF30BD07FF30BE3D22
:100C3C00FF30C007FF30C13D0A30A000A101A20166
:100C4C00A301A401A501A601A7014408A800450819
:100C5C00A9004608AA004708AB004808AC004908A0
:100C6C00AD004A08AE004B08AF008331122385312A
:100C7C0040012008C4002108C5002208C600230832
:100C8C00C7002408C8002508C9002608CA00270880
:100C9C00CB0040014D08803AB80080303802031D6B
:100CAC00592E01304C020318C12D40014208430457
:100CBC00031D632E41016B1D7B2EFF304001CC07C1
:100CCC00FF30CD3D42084304031D6E2E2B306F2E9A
:100CDC002D30BB000030BC003B08B8004C08A03ED7
:100CEC008600013087003808810040014C08A03E86
:100CFC00B8003808A4004108A6004008A5003F0829
:100D0C008131422140012508B1002408B0000800BF
:100D1C004001C3004201D21B982EFD304101EB056E
:100D2C00FF30EC0542015208803A4001B50080309A
:100D3C003502031DA42E0130420151020318AC2EC2
:100D4C0001304001C1000030C200B42E42015208F3
:100D5C004001C200420151084001C100420150084B
:100D6C004001C50042014F084001C40041016B1E07
:100D7C00C42EFE304001C407FF30C53D40012C0895
:100D8C00C6002D08C7002E08C8002F08C90030085F
:100D9C00CA003108CB003208CC003308CD001F301C
:100DAC00CE000030CF004301BF01862FFF30400141
:100DBC00CE07FF30CF3D0F304605D0000030470541
:100DCC00D1005108803AB50080303502031DF02E59
:100DDC000A305002031CF62E40015008573EF92EE3
:100DEC0040015008303ED0000030513DD100340855
:100DFC00BF3EB500FF3003180030B600003036029D
:100E0C001A300319350203180D2F01300E2F003044
:100E1C00B700B8013708BD003808BE003D083E04D5
:100E2C000319442F20305004B50000305104B60093
:100E3C0035089F3EB700FF30363DB8000030380211
:100E4C001A300319370203182D2F01302E2F0030C2
:100E5C00B900BA013908BF003A08C0003F08400485
:100E6C000319442F5108F7005008F6008F31BB27A7
:100E7C00863177084001D1007608D0005008B500C3
:100E8C004E08A03E86000130870035088100FF30F7
:100E9C00C107FF30C23DFF30C407FF30C53D4630AF
:100EAC00860000308700403FB500413FB600423F0E
:100EBC00B700433FB800443FB900453FBA00463F36
:100ECC00BB00473FBC0004304001BC36BB0CBA0C25
:100EDC00B90CB80CB70CB60CB50C890B6A2F4001C9
:100EEC003C08CD003B08CC003A08CB003908CA00BE
:100EFC003808C9003708C8003608C7003508C600CE
:100F0C0040014F08803AB50080303502031D902F08
:100F1C0002304E02031CB72F400146084704480418
:100F2C0049044A044B044C044D04031DDC2E4208B6
:100F3C00803AB50080303502031DA62F01304102E6
:100F4C000318DC2E40014508803AB500803035028C
:100F5C00031DB22F01304402031CB72F4101EB18C3
:100F6C00DC2E41016B1ED52FFF304001CE07FF3028
:100F7C00CF3D3408B5004E08A03E860001308700F6
:100F8C0035088100FF30CE07FF30CF3D3030B50043
:100F9C004E08A03E860001308700350881004001D4
:100FAC004E08A03EB5003508A4004508A60044082C
:100FBC00A50043088131422140012508AD002408D9
:100FCC00AC0008004101EB01EC01ED01EE01EF0179
:100FDC0020308400013085003C308E31A8268731CA
:100FEC00A03084000130850020308E31A8264001CD
:100FFC0081319229E5340A34003400340034003451
:10100C000034003405340534013400340134013427
:10101C000034003400340034003400340034003424
:10102C000034003400340034003400340034013413
:10103C000034003400340034003400340034003404
:0E104C0000340034003400340034003400342A
:101D2200FF30F000FF30F100080071084201E600C8
:101D32007008E500080071084201EA007008E90035
:101D4200080071084201E8007008E700080064001A
:101D520080010131890BA92E0034F0004E010F1EC3
:101D6200AF2E700842019A00080000308031A42092
:101D72007308FB007208FA00080071084201D600DD
:101D82007008D5007308D4007208D30008007108E7
:101D92004101EE007008ED0073084201D80072089C
:101DA200D7000800F000263042019E009D177008FF
:101DB2009A004E010F1EDA2E0F1208001D3041014B
:101DC200E1006108AD001D30E2006208AE00B530EE
:101DD200E3006308AF00420156088A0055080A0072
:101DE2008E310800A5304101A9002908AC00240861
:101DF2004001EC00410123084001EB00AC304101FD
:101E0200A90029084001ED00003081310D210800B0
:101E12007408803AF50080307502031D122F0130DC
:101E22007302031808007309F5007409F600F50A35
:101E32000319F60A7508F3007608F4000800700822
:101E4200BF3EF200FF30713DF300003073021A30E2
:101E52000319720203182F2F0130302F0030F400C3
:101E6200F5017408F0007508F100080070089F3E43
:101E7200F200FF30713DF300003073021A30031993
:101E820072020318462F0130472F0030F400F5018B
:101E92007408F0007508F100080000304101A30049
:101EA2009030A4002E08AF00B0012F08A500300822
:101EB200A6002D08B100B2013108A7003208A8001F
:101EC2008E31F32601300800F4007408F200720823
:101ED200F300740886000130870001080319762F89
:101EE2000130F2007208F4076A2F73087402F000DE
:101EF200F101F01BF103080020307004F200003001
:101F02007104F30072089F3EF400FF30733DF50048
:101F1200003075021A30031974020318922F01302F
:101F2200932F0030F600F7017608F0007708F100F1
:101F32000800083042019F0080309D0024309E003E
:101F42000C309B009C010030F0000030F1008E311B
:101F52009C268F310030F0000030F1008E31A22635
:101F62008F310030F0000030F1008E3196264201B0
:101F7200DA01080076089F3EF800FF30773DF9004D
:101F8200003079021A30031978020318CA2F01307F
:101F9200CB2F0030FA00FB017A08FC007B08FD0021
:101FA2007C087D04031908005F307605F6000030D6
:101FB2007705F7000800420138084101B3003308F1
:101FC200B500CF30B3003308B5052D30B300330868
:101FD200AD003508B4003408AE006E088A006D0802
:101FE2000A008F31003A031DF82F0030080041012A
:101FF2003508B30033084201B800013008005734F5
:1020020072346934743469346E346734203476340B
:1020120061346C34753465342034253458342034BA
:1020220069346E34203472346534673469347334FD
:102032007434653472342034253458340A3400340C
:1020420045346E3474346534723420346C346F34F5
:102052007734203470346F347734653472342034FA
:102062006D346F34643465343A3420342534643446
:102072000A340034453478346934743420346C348E
:102082006F347734203470346F347734653472347B
:1020920020346D346F34643465343A34203425345A
:1020A20064340A3400344534783469347434413445
:1020B200753474346F347334703465346534643415
:1020C20020346D346F34643465343A34203425342A
:1020D20064340A34003449346E34693474346934F3
:1020E20061346C3469347A34653420346434653450
:1020F20076346934633465343A34203425346434B4
:042102000A34003467
:020000040001F9
:0A000E00EC3FFF3F9F3FFF3FFF3F25
:00000001FF
